{"abi":[{"type":"constructor","inputs":[{"name":"initialOwner","type":"address","internalType":"address"},{"name":"_bridgeOperator","type":"address","internalType":"address"}],"stateMutability":"nonpayable"},{"type":"function","name":"DAILY_MINT_LIMIT","inputs":[],"outputs":[{"name":"","type":"uint256","internalType":"uint256"}],"stateMutability":"view"},{"type":"function","name":"MAX_MINT_AMOUNT","inputs":[],"outputs":[{"name":"","type":"uint256","internalType":"uint256"}],"stateMutability":"view"},{"type":"function","name":"MIN_BURN_AMOUNT","inputs":[],"outputs":[{"name":"","type":"uint256","internalType":"uint256"}],"stateMutability":"view"},{"type":"function","name":"allowance","inputs":[{"name":"owner","type":"address","internalType":"address"},{"name":"spender","type":"address","internalType":"address"}],"outputs":[{"name":"","type":"uint256","internalType":"uint256"}],"stateMutability":"view"},{"type":"function","name":"approve","inputs":[{"name":"spender","type":"address","internalType":"address"},{"name":"value","type":"uint256","internalType":"uint256"}],"outputs":[{"name":"","type":"bool","internalType":"bool"}],"stateMutability":"nonpayable"},{"type":"function","name":"balanceOf","inputs":[{"name":"account","type":"address","internalType":"address"}],"outputs":[{"name":"","type":"uint256","internalType":"uint256"}],"stateMutability":"view"},{"type":"function","name":"bridgeOperator","inputs":[],"outputs":[{"name":"","type":"address","internalType":"address"}],"stateMutability":"view"},{"type":"function","name":"burn","inputs":[{"name":"amount","type":"uint256","internalType":"uint256"},{"name":"solanaAddress","type":"string","internalType":"string"}],"outputs":[],"stateMutability":"nonpayable"},{"type":"function","name":"dailyMintAmount","inputs":[{"name":"","type":"uint256","internalType":"uint256"}],"outputs":[{"name":"","type":"uint256","internalType":"uint256"}],"stateMutability":"view"},{"type":"function","name":"decimals","inputs":[],"outputs":[{"name":"","type":"uint8","internalType":"uint8"}],"stateMutability":"pure"},{"type":"function","name":"getCurrentDay","inputs":[],"outputs":[{"name":"","type":"uint256","internalType":"uint256"}],"stateMutability":"view"},{"type":"function","name":"getDailyMintAmount","inputs":[{"name":"day","type":"uint256","internalType":"uint256"}],"outputs":[{"name":"","type":"uint256","internalType":"uint256"}],"stateMutability":"view"},{"type":"function","name":"getRemainingDailyMintLimit","inputs":[],"outputs":[{"name":"","type":"uint256","internalType":"uint256"}],"stateMutability":"view"},{"type":"function","name":"getTodayMintAmount","inputs":[],"outputs":[{"name":"","type":"uint256","internalType":"uint256"}],"stateMutability":"view"},{"type":"function","name":"mint","inputs":[{"name":"to","type":"address","internalType":"address"},{"name":"amount","type":"uint256","internalType":"uint256"},{"name":"solanaTxHash","type":"bytes32","internalType":"bytes32"}],"outputs":[],"stateMutability":"nonpayable"},{"type":"function","name":"name","inputs":[],"outputs":[{"name":"","type":"string","internalType":"string"}],"stateMutability":"view"},{"type":"function","name":"owner","inputs":[],"outputs":[{"name":"","type":"address","internalType":"address"}],"stateMutability":"view"},{"type":"function","name":"pause","inputs":[],"outputs":[],"stateMutability":"nonpayable"},{"type":"function","name":"paused","inputs":[],"outputs":[{"name":"","type":"bool","internalType":"bool"}],"stateMutability":"view"},{"type":"function","name":"processedTxs","inputs":[{"name":"","type":"bytes32","internalType":"bytes32"}],"outputs":[{"name":"","type":"bool","internalType":"bool"}],"stateMutability":"view"},{"type":"function","name":"renounceOwnership","inputs":[],"outputs":[],"stateMutability":"nonpayable"},{"type":"function","name":"symbol","inputs":[],"outputs":[{"name":"","type":"string","internalType":"string"}],"stateMutability":"view"},{"type":"function","name":"totalSupply","inputs":[],"outputs":[{"name":"","type":"uint256","internalType":"uint256"}],"stateMutability":"view"},{"type":"function","name":"transfer","inputs":[{"name":"to","type":"address","internalType":"address"},{"name":"value","type":"uint256","internalType":"uint256"}],"outputs":[{"name":"","type":"bool","internalType":"bool"}],"stateMutability":"nonpayable"},{"type":"function","name":"transferFrom","inputs":[{"name":"from","type":"address","internalType":"address"},{"name":"to","type":"address","internalType":"address"},{"name":"value","type":"uint256","internalType":"uint256"}],"outputs":[{"name":"","type":"bool","internalType":"bool"}],"stateMutability":"nonpayable"},{"type":"function","name":"transferOwnership","inputs":[{"name":"newOwner","type":"address","internalType":"address"}],"outputs":[],"stateMutability":"nonpayable"},{"type":"function","name":"unpause","inputs":[],"outputs":[],"stateMutability":"nonpayable"},{"type":"function","name":"updateBridgeOperator","inputs":[{"name":"newOperator","type":"address","internalType":"address"}],"outputs":[],"stateMutability":"nonpayable"},{"type":"event","name":"Approval","inputs":[{"name":"owner","type":"address","indexed":true,"internalType":"address"},{"name":"spender","type":"address","indexed":true,"internalType":"address"},{"name":"value","type":"uint256","indexed":false,"internalType":"uint256"}],"anonymous":false},{"type":"event","name":"BridgeOperatorUpdated","inputs":[{"name":"oldOperator","type":"address","indexed":true,"internalType":"address"},{"name":"newOperator","type":"address","indexed":true,"internalType":"address"}],"anonymous":false},{"type":"event","name":"Burned","inputs":[{"name":"user","type":"address","indexed":true,"internalType":"address"},{"name":"amount","type":"uint256","indexed":false,"internalType":"uint256"},{"name":"solanaAddress","type":"string","indexed":false,"internalType":"string"}],"anonymous":false},{"type":"event","name":"Minted","inputs":[{"name":"to","type":"address","indexed":true,"internalType":"address"},{"name":"amount","type":"uint256","indexed":false,"internalType":"uint256"},{"name":"solanaTxHash","type":"bytes32","indexed":false,"internalType":"bytes32"}],"anonymous":false},{"type":"event","name":"OwnershipTransferred","inputs":[{"name":"previousOwner","type":"address","indexed":true,"internalType":"address"},{"name":"newOwner","type":"address","indexed":true,"internalType":"address"}],"anonymous":false},{"type":"event","name":"Paused","inputs":[{"name":"account","type":"address","indexed":false,"internalType":"address"}],"anonymous":false},{"type":"event","name":"Transfer","inputs":[{"name":"from","type":"address","indexed":true,"internalType":"address"},{"name":"to","type":"address","indexed":true,"internalType":"address"},{"name":"value","type":"uint256","indexed":false,"internalType":"uint256"}],"anonymous":false},{"type":"event","name":"Unpaused","inputs":[{"name":"account","type":"address","indexed":false,"internalType":"address"}],"anonymous":false},{"type":"error","name":"ERC20InsufficientAllowance","inputs":[{"name":"spender","type":"address","internalType":"address"},{"name":"allowance","type":"uint256","internalType":"uint256"},{"name":"needed","type":"uint256","internalType":"uint256"}]},{"type":"error","name":"ERC20InsufficientBalance","inputs":[{"name":"sender","type":"address","internalType":"address"},{"name":"balance","type":"uint256","internalType":"uint256"},{"name":"needed","type":"uint256","internalType":"uint256"}]},{"type":"error","name":"ERC20InvalidApprover","inputs":[{"name":"approver","type":"address","internalType":"address"}]},{"type":"error","name":"ERC20InvalidReceiver","inputs":[{"name":"receiver","type":"address","internalType":"address"}]},{"type":"error","name":"ERC20InvalidSender","inputs":[{"name":"sender","type":"address","internalType":"address"}]},{"type":"error","name":"ERC20InvalidSpender","inputs":[{"name":"spender","type":"address","internalType":"address"}]},{"type":"error","name":"EnforcedPause","inputs":[]},{"type":"error","name":"ExpectedPause","inputs":[]},{"type":"error","name":"OwnableInvalidOwner","inputs":[{"name":"owner","type":"address","internalType":"address"}]},{"type":"error","name":"OwnableUnauthorizedAccount","inputs":[{"name":"account","type":"address","internalType":"address"}]},{"type":"error","name":"ReentrancyGuardReentrantCall","inputs":[]}],"bytecode":{"object":"0x608060405234801561000f575f5ffd5b50604051612b98380380612b988339818101604052810190610031919061031e565b816040518060400160405280601781526020017f43726f7373627269646765205772617070656420534f4c0000000000000000008152506040518060400160405280600581526020017f4357536f6c00000000000000000000000000000000000000000000000000000081525081600390816100ad9190610599565b5080600490816100bd9190610599565b5050505f73ffffffffffffffffffffffffffffffffffffffff168173ffffffffffffffffffffffffffffffffffffffff1603610130575f6040517f1e4fbdf70000000000000000000000000000000000000000000000000000000081526004016101279190610677565b60405180910390fd5b61013f816101fd60201b60201c565b5060016006819055505f73ffffffffffffffffffffffffffffffffffffffff168173ffffffffffffffffffffffffffffffffffffffff16036101b6576040517f08c379a00000000000000000000000000000000000000000000000000000000081526004016101ad906106ea565b60405180910390fd5b8060095f6101000a81548173ffffffffffffffffffffffffffffffffffffffff021916908373ffffffffffffffffffffffffffffffffffffffff1602179055505050610708565b5f60055f9054906101000a900473ffffffffffffffffffffffffffffffffffffffff1690508160055f6101000a81548173ffffffffffffffffffffffffffffffffffffffff021916908373ffffffffffffffffffffffffffffffffffffffff1602179055508173ffffffffffffffffffffffffffffffffffffffff168173ffffffffffffffffffffffffffffffffffffffff167f8be0079c531659141344cd1fd0a4f28419497f9722a3daafe3b4186f6b6457e060405160405180910390a35050565b5f5ffd5b5f73ffffffffffffffffffffffffffffffffffffffff82169050919050565b5f6102ed826102c4565b9050919050565b6102fd816102e3565b8114610307575f5ffd5b50565b5f81519050610318816102f4565b92915050565b5f5f60408385031215610334576103336102c0565b5b5f6103418582860161030a565b92505060206103528582860161030a565b9150509250929050565b5f81519050919050565b7f4e487b71000000000000000000000000000000000000000000000000000000005f52604160045260245ffd5b7f4e487b71000000000000000000000000000000000000000000000000000000005f52602260045260245ffd5b5f60028204905060018216806103d757607f821691505b6020821081036103ea576103e9610393565b5b50919050565b5f819050815f5260205f209050919050565b5f6020601f8301049050919050565b5f82821b905092915050565b5f6008830261044c7fffffffffffffffffffffffffffffffffffffffffffffffffffffffffffffffff82610411565b6104568683610411565b95508019841693508086168417925050509392505050565b5f819050919050565b5f819050919050565b5f61049a6104956104908461046e565b610477565b61046e565b9050919050565b5f819050919050565b6104b383610480565b6104c76104bf826104a1565b84845461041d565b825550505050565b5f5f905090565b6104de6104cf565b6104e98184846104aa565b505050565b5b8181101561050c576105015f826104d6565b6001810190506104ef565b5050565b601f82111561055157610522816103f0565b61052b84610402565b8101602085101561053a578190505b61054e61054685610402565b8301826104ee565b50505b505050565b5f82821c905092915050565b5f6105715f1984600802610556565b1980831691505092915050565b5f6105898383610562565b9150826002028217905092915050565b6105a28261035c565b67ffffffffffffffff8111156105bb576105ba610366565b5b6105c582546103c0565b6105d0828285610510565b5f60209050601f831160018114610601575f84156105ef578287015190505b6105f9858261057e565b865550610660565b601f19841661060f866103f0565b5f5b8281101561063657848901518255600182019150602085019450602081019050610611565b86831015610653578489015161064f601f891682610562565b8355505b6001600288020188555050505b505050505050565b610671816102e3565b82525050565b5f60208201905061068a5f830184610668565b92915050565b5f82825260208201905092915050565b7f696e76616c69646520627269646765206f70657261746f7200000000000000005f82015250565b5f6106d4601883610690565b91506106df826106a0565b602082019050919050565b5f6020820190508181035f830152610701816106c8565b9050919050565b612483806107155f395ff3fe608060405234801561000f575f5ffd5b50600436106101c2575f3560e01c8063715018a6116100f75780639b2ee43711610095578063dd62ed3e1161006f578063dd62ed3e146104d2578063f2fde38b14610502578063f98e370e1461051e578063fa9b70181461053c576101c2565b80639b2ee437146104565780639e16f21714610472578063a9059cbb146104a2576101c2565b8063859222ec116100d1578063859222ec146103cc5780638da5cb5b146103ea57806395d89b4114610408578063963f7d0f14610426576101c2565b8063715018a61461039c5780637641e6f3146103a65780638456cb59146103c2576101c2565b80633e6968b6116101645780635b09b0c71161013e5780635b09b0c7146103005780635c975abb1461031e578063709ce10a1461033c57806370a082311461036c576101c2565b80633e6968b6146102ba5780633f4ba83a146102d8578063590665c2146102e2576101c2565b806318160ddd116101a057806318160ddd146102325780631e458bee1461025057806323b872dd1461026c578063313ce5671461029c576101c2565b806306fdde03146101c6578063095ea7b3146101e45780630a167cf114610214575b5f5ffd5b6101ce61055a565b6040516101db9190611993565b60405180910390f35b6101fe60048036038101906101f99190611a48565b6105ea565b60405161020b9190611aa0565b60405180910390f35b61021c61060c565b6040516102299190611ac8565b60405180910390f35b61023a610615565b6040516102479190611ac8565b60405180910390f35b61026a60048036038101906102659190611b14565b61061e565b005b61028660048036038101906102819190611b64565b61093a565b6040516102939190611aa0565b60405180910390f35b6102a4610968565b6040516102b19190611bcf565b60405180910390f35b6102c2610970565b6040516102cf9190611ac8565b60405180910390f35b6102e0610985565b005b6102ea610997565b6040516102f79190611bf7565b60405180910390f35b6103086109bc565b6040516103159190611ac8565b60405180910390f35b610326610a06565b6040516103339190611aa0565b60405180910390f35b61035660048036038101906103519190611c10565b610a1c565b6040516103639190611ac8565b60405180910390f35b61038660048036038101906103819190611c3b565b610a31565b6040516103939190611ac8565b60405180910390f35b6103a4610a76565b005b6103c060048036038101906103bb9190611cc7565b610a89565b005b6103ca610c30565b005b6103d4610c42565b6040516103e19190611ac8565b60405180910390f35b6103f2610c49565b6040516103ff9190611bf7565b60405180910390f35b610410610c71565b60405161041d9190611993565b60405180910390f35b610440600480360381019061043b9190611c10565b610d01565b60405161044d9190611ac8565b60405180910390f35b610470600480360381019061046b9190611c3b565b610d1b565b005b61048c60048036038101906104879190611d24565b610e54565b6040516104999190611aa0565b60405180910390f35b6104bc60048036038101906104b79190611a48565b610e71565b6040516104c99190611aa0565b60405180910390f35b6104ec60048036038101906104e79190611d4f565b610e93565b6040516104f99190611ac8565b60405180910390f35b61051c60048036038101906105179190611c3b565b610f15565b005b610526610f99565b6040516105339190611ac8565b60405180910390f35b610544610fb8565b6040516105519190611ac8565b60405180910390f35b60606003805461056990611dba565b80601f016020809104026020016040519081016040528092919081815260200182805461059590611dba565b80156105e05780601f106105b7576101008083540402835291602001916105e0565b820191905f5260205f20905b8154815290600101906020018083116105c357829003601f168201915b5050505050905090565b5f5f6105f4610fc1565b9050610601818585610fc8565b600191505092915050565b64e8d4a5100081565b5f600254905090565b60095f9054906101000a900473ffffffffffffffffffffffffffffffffffffffff1673ffffffffffffffffffffffffffffffffffffffff163373ffffffffffffffffffffffffffffffffffffffff16146106ad576040517f08c379a00000000000000000000000000000000000000000000000000000000081526004016106a490611e34565b60405180910390fd5b6106b5610fda565b6106bd61101b565b5f73ffffffffffffffffffffffffffffffffffffffff168373ffffffffffffffffffffffffffffffffffffffff160361072b576040517f08c379a000000000000000000000000000000000000000000000000000000000815260040161072290611e9c565b60405180910390fd5b5f821161076d576040517f08c379a000000000000000000000000000000000000000000000000000000000815260040161076490611f2a565b60405180910390fd5b64e8d4a510008211156107b5576040517f08c379a00000000000000000000000000000000000000000000000000000000081526004016107ac90611f92565b60405180910390fd5b60075f8281526020019081526020015f205f9054906101000a900460ff1615610813576040517f08c379a000000000000000000000000000000000000000000000000000000000815260040161080a90611ffa565b60405180910390fd5b5f61081c610970565b905064e8d4a510008360085f8481526020019081526020015f20546108419190612045565b1115610882576040517f08c379a0000000000000000000000000000000000000000000000000000000008152600401610879906120c2565b60405180910390fd5b600160075f8481526020019081526020015f205f6101000a81548160ff0219169083151502179055508260085f8381526020019081526020015f205f8282546108cb9190612045565b925050819055506108dc8484611061565b8373ffffffffffffffffffffffffffffffffffffffff167fc263b302aec62d29105026245f19e16f8e0137066ccd4a8bd941f716bd4096bb84846040516109249291906120ef565b60405180910390a2506109356110e0565b505050565b5f5f610944610fc1565b90506109518582856110ea565b61095c85858561117d565b60019150509392505050565b5f6009905090565b5f62015180426109809190612143565b905090565b61098d61126d565b6109956112f4565b565b60095f9054906101000a900473ffffffffffffffffffffffffffffffffffffffff1681565b5f5f60085f6109c9610970565b81526020019081526020015f2054905064e8d4a5100081106109ee575f915050610a03565b8064e8d4a510006109ff9190612173565b9150505b90565b5f600560149054906101000a900460ff16905090565b6008602052805f5260405f205f915090505481565b5f5f5f8373ffffffffffffffffffffffffffffffffffffffff1673ffffffffffffffffffffffffffffffffffffffff1681526020019081526020015f20549050919050565b610a7e61126d565b610a875f611356565b565b610a91610fda565b610a9961101b565b818160208282905010158015610ab35750602c8282905011155b610af2576040517f08c379a0000000000000000000000000000000000000000000000000000000008152600401610ae9906121f0565b60405180910390fd5b620f4240851015610b38576040517f08c379a0000000000000000000000000000000000000000000000000000000008152600401610b2f90612258565b60405180910390fd5b5f8511610b7a576040517f08c379a0000000000000000000000000000000000000000000000000000000008152600401610b71906122c0565b60405180910390fd5b84610b8433610a31565b1015610bc5576040517f08c379a0000000000000000000000000000000000000000000000000000000008152600401610bbc90612328565b60405180910390fd5b610bcf3386611419565b3373ffffffffffffffffffffffffffffffffffffffff167f0bd10d08cdd688ae27d8149d34aea2ddb78c6e0116355640cf1af79a2c9ab394868686604051610c1993929190612380565b60405180910390a25050610c2b6110e0565b505050565b610c3861126d565b610c40611498565b565b620f424081565b5f60055f9054906101000a900473ffffffffffffffffffffffffffffffffffffffff16905090565b606060048054610c8090611dba565b80601f0160208091040260200160405190810160405280929190818152602001828054610cac90611dba565b8015610cf75780601f10610cce57610100808354040283529160200191610cf7565b820191905f5260205f20905b815481529060010190602001808311610cda57829003601f168201915b5050505050905090565b5f60085f8381526020019081526020015f20549050919050565b610d2361126d565b5f73ffffffffffffffffffffffffffffffffffffffff168173ffffffffffffffffffffffffffffffffffffffff1603610d91576040517f08c379a0000000000000000000000000000000000000000000000000000000008152600401610d88906123fa565b60405180910390fd5b5f60095f9054906101000a900473ffffffffffffffffffffffffffffffffffffffff1690508160095f6101000a81548173ffffffffffffffffffffffffffffffffffffffff021916908373ffffffffffffffffffffffffffffffffffffffff1602179055508173ffffffffffffffffffffffffffffffffffffffff168173ffffffffffffffffffffffffffffffffffffffff167fdf9977b98dde2e1ecb7dc6d80fa2a2a2232ccbbd871c84638f8e0a9da0d445bc60405160405180910390a35050565b6007602052805f5260405f205f915054906101000a900460ff1681565b5f5f610e7b610fc1565b9050610e8881858561117d565b600191505092915050565b5f60015f8473ffffffffffffffffffffffffffffffffffffffff1673ffffffffffffffffffffffffffffffffffffffff1681526020019081526020015f205f8373ffffffffffffffffffffffffffffffffffffffff1673ffffffffffffffffffffffffffffffffffffffff1681526020019081526020015f2054905092915050565b610f1d61126d565b5f73ffffffffffffffffffffffffffffffffffffffff168173ffffffffffffffffffffffffffffffffffffffff1603610f8d575f6040517f1e4fbdf7000000000000000000000000000000000000000000000000000000008152600401610f849190611bf7565b60405180910390fd5b610f9681611356565b50565b5f60085f610fa5610970565b81526020019081526020015f2054905090565b64e8d4a5100081565b5f33905090565b610fd583838360016114fb565b505050565b610fe2610a06565b15611019576040517fd93c066500000000000000000000000000000000000000000000000000000000815260040160405180910390fd5b565b600260065403611057576040517f3ee5aeb500000000000000000000000000000000000000000000000000000000815260040160405180910390fd5b6002600681905550565b5f73ffffffffffffffffffffffffffffffffffffffff168273ffffffffffffffffffffffffffffffffffffffff16036110d1575f6040517fec442f050000000000000000000000000000000000000000000000000000000081526004016110c89190611bf7565b60405180910390fd5b6110dc5f83836116ca565b5050565b6001600681905550565b5f6110f58484610e93565b90507fffffffffffffffffffffffffffffffffffffffffffffffffffffffffffffffff8110156111775781811015611168578281836040517ffb8f41b200000000000000000000000000000000000000000000000000000000815260040161115f93929190612418565b60405180910390fd5b61117684848484035f6114fb565b5b50505050565b5f73ffffffffffffffffffffffffffffffffffffffff168373ffffffffffffffffffffffffffffffffffffffff16036111ed575f6040517f96c6fd1e0000000000000000000000000000000000000000000000000000000081526004016111e49190611bf7565b60405180910390fd5b5f73ffffffffffffffffffffffffffffffffffffffff168273ffffffffffffffffffffffffffffffffffffffff160361125d575f6040517fec442f050000000000000000000000000000000000000000000000000000000081526004016112549190611bf7565b60405180910390fd5b6112688383836116ca565b505050565b611275610fc1565b73ffffffffffffffffffffffffffffffffffffffff16611293610c49565b73ffffffffffffffffffffffffffffffffffffffff16146112f2576112b6610fc1565b6040517f118cdaa70000000000000000000000000000000000000000000000000000000081526004016112e99190611bf7565b60405180910390fd5b565b6112fc6118e3565b5f600560146101000a81548160ff0219169083151502179055507f5db9ee0a495bf2e6ff9c91a7834c1ba4fdd244a5e8aa4e537bd38aeae4b073aa61133f610fc1565b60405161134c9190611bf7565b60405180910390a1565b5f60055f9054906101000a900473ffffffffffffffffffffffffffffffffffffffff1690508160055f6101000a81548173ffffffffffffffffffffffffffffffffffffffff021916908373ffffffffffffffffffffffffffffffffffffffff1602179055508173ffffffffffffffffffffffffffffffffffffffff168173ffffffffffffffffffffffffffffffffffffffff167f8be0079c531659141344cd1fd0a4f28419497f9722a3daafe3b4186f6b6457e060405160405180910390a35050565b5f73ffffffffffffffffffffffffffffffffffffffff168273ffffffffffffffffffffffffffffffffffffffff1603611489575f6040517f96c6fd1e0000000000000000000000000000000000000000000000000000000081526004016114809190611bf7565b60405180910390fd5b611494825f836116ca565b5050565b6114a0610fda565b6001600560146101000a81548160ff0219169083151502179055507f62e78cea01bee320cd4e420270b5ea74000d11b0c9f74754ebdbfc544b05a2586114e4610fc1565b6040516114f19190611bf7565b60405180910390a1565b5f73ffffffffffffffffffffffffffffffffffffffff168473ffffffffffffffffffffffffffffffffffffffff160361156b575f6040517fe602df050000000000000000000000000000000000000000000000000000000081526004016115629190611bf7565b60405180910390fd5b5f73ffffffffffffffffffffffffffffffffffffffff168373ffffffffffffffffffffffffffffffffffffffff16036115db575f6040517f94280d620000000000000000000000000000000000000000000000000000000081526004016115d29190611bf7565b60405180910390fd5b8160015f8673ffffffffffffffffffffffffffffffffffffffff1673ffffffffffffffffffffffffffffffffffffffff1681526020019081526020015f205f8573ffffffffffffffffffffffffffffffffffffffff1673ffffffffffffffffffffffffffffffffffffffff1681526020019081526020015f208190555080156116c4578273ffffffffffffffffffffffffffffffffffffffff168473ffffffffffffffffffffffffffffffffffffffff167f8c5be1e5ebec7d5bd14f71427d1e84f3dd0314c0f7b2291e5b200ac8c7c3b925846040516116bb9190611ac8565b60405180910390a35b50505050565b5f73ffffffffffffffffffffffffffffffffffffffff168373ffffffffffffffffffffffffffffffffffffffff160361171a578060025f82825461170e9190612045565b925050819055506117e8565b5f5f5f8573ffffffffffffffffffffffffffffffffffffffff1673ffffffffffffffffffffffffffffffffffffffff1681526020019081526020015f20549050818110156117a3578381836040517fe450d38c00000000000000000000000000000000000000000000000000000000815260040161179a93929190612418565b60405180910390fd5b8181035f5f8673ffffffffffffffffffffffffffffffffffffffff1673ffffffffffffffffffffffffffffffffffffffff1681526020019081526020015f2081905550505b5f73ffffffffffffffffffffffffffffffffffffffff168273ffffffffffffffffffffffffffffffffffffffff160361182f578060025f8282540392505081905550611879565b805f5f8473ffffffffffffffffffffffffffffffffffffffff1673ffffffffffffffffffffffffffffffffffffffff1681526020019081526020015f205f82825401925050819055505b8173ffffffffffffffffffffffffffffffffffffffff168373ffffffffffffffffffffffffffffffffffffffff167fddf252ad1be2c89b69c2b068fc378daa952ba7f163c4a11628f55a4df523b3ef836040516118d69190611ac8565b60405180910390a3505050565b6118eb610a06565b611921576040517f8dfc202b00000000000000000000000000000000000000000000000000000000815260040160405180910390fd5b565b5f81519050919050565b5f82825260208201905092915050565b8281835e5f83830152505050565b5f601f19601f8301169050919050565b5f61196582611923565b61196f818561192d565b935061197f81856020860161193d565b6119888161194b565b840191505092915050565b5f6020820190508181035f8301526119ab818461195b565b905092915050565b5f5ffd5b5f5ffd5b5f73ffffffffffffffffffffffffffffffffffffffff82169050919050565b5f6119e4826119bb565b9050919050565b6119f4816119da565b81146119fe575f5ffd5b50565b5f81359050611a0f816119eb565b92915050565b5f819050919050565b611a2781611a15565b8114611a31575f5ffd5b50565b5f81359050611a4281611a1e565b92915050565b5f5f60408385031215611a5e57611a5d6119b3565b5b5f611a6b85828601611a01565b9250506020611a7c85828601611a34565b9150509250929050565b5f8115159050919050565b611a9a81611a86565b82525050565b5f602082019050611ab35f830184611a91565b92915050565b611ac281611a15565b82525050565b5f602082019050611adb5f830184611ab9565b92915050565b5f819050919050565b611af381611ae1565b8114611afd575f5ffd5b50565b5f81359050611b0e81611aea565b92915050565b5f5f5f60608486031215611b2b57611b2a6119b3565b5b5f611b3886828701611a01565b9350506020611b4986828701611a34565b9250506040611b5a86828701611b00565b9150509250925092565b5f5f5f60608486031215611b7b57611b7a6119b3565b5b5f611b8886828701611a01565b9350506020611b9986828701611a01565b9250506040611baa86828701611a34565b9150509250925092565b5f60ff82169050919050565b611bc981611bb4565b82525050565b5f602082019050611be25f830184611bc0565b92915050565b611bf1816119da565b82525050565b5f602082019050611c0a5f830184611be8565b92915050565b5f60208284031215611c2557611c246119b3565b5b5f611c3284828501611a34565b91505092915050565b5f60208284031215611c5057611c4f6119b3565b5b5f611c5d84828501611a01565b91505092915050565b5f5ffd5b5f5ffd5b5f5ffd5b5f5f83601f840112611c8757611c86611c66565b5b8235905067ffffffffffffffff811115611ca457611ca3611c6a565b5b602083019150836001820283011115611cc057611cbf611c6e565b5b9250929050565b5f5f5f60408486031215611cde57611cdd6119b3565b5b5f611ceb86828701611a34565b935050602084013567ffffffffffffffff811115611d0c57611d0b6119b7565b5b611d1886828701611c72565b92509250509250925092565b5f60208284031215611d3957611d386119b3565b5b5f611d4684828501611b00565b91505092915050565b5f5f60408385031215611d6557611d646119b3565b5b5f611d7285828601611a01565b9250506020611d8385828601611a01565b9150509250929050565b7f4e487b71000000000000000000000000000000000000000000000000000000005f52602260045260245ffd5b5f6002820490506001821680611dd157607f821691505b602082108103611de457611de3611d8d565b5b50919050565b7f4f6e6c7920627269646765204f70657261746f722000000000000000000000005f82015250565b5f611e1e60158361192d565b9150611e2982611dea565b602082019050919050565b5f6020820190508181035f830152611e4b81611e12565b9050919050565b7f63616e2774206d696e7420746f207a65726f20616464726573730000000000005f82015250565b5f611e86601a8361192d565b9150611e9182611e52565b602082019050919050565b5f6020820190508181035f830152611eb381611e7a565b9050919050565b7f616d6f756e74206d757374206265206772656174686572207468616e207a65725f8201527f6f00000000000000000000000000000000000000000000000000000000000000602082015250565b5f611f1460218361192d565b9150611f1f82611eba565b604082019050919050565b5f6020820190508181035f830152611f4181611f08565b9050919050565b7f616d6f756e74206d6178696d75696d20706572206d696e7420000000000000005f82015250565b5f611f7c60198361192d565b9150611f8782611f48565b602082019050919050565b5f6020820190508181035f830152611fa981611f70565b9050919050565b7f5472616e73616374696f6e20616c72656164792070726f6365737365640000005f82015250565b5f611fe4601d8361192d565b9150611fef82611fb0565b602082019050919050565b5f6020820190508181035f83015261201181611fd8565b9050919050565b7f4e487b71000000000000000000000000000000000000000000000000000000005f52601160045260245ffd5b5f61204f82611a15565b915061205a83611a15565b925082820190508082111561207257612071612018565b5b92915050565b7f6461696c79206d696e74206578636565646564000000000000000000000000005f82015250565b5f6120ac60138361192d565b91506120b782612078565b602082019050919050565b5f6020820190508181035f8301526120d9816120a0565b9050919050565b6120e981611ae1565b82525050565b5f6040820190506121025f830185611ab9565b61210f60208301846120e0565b9392505050565b7f4e487b71000000000000000000000000000000000000000000000000000000005f52601260045260245ffd5b5f61214d82611a15565b915061215883611a15565b92508261216857612167612116565b5b828204905092915050565b5f61217d82611a15565b915061218883611a15565b92508282039050818111156121a05761219f612018565b5b92915050565b7f696e76616c6964206164647265737300000000000000000000000000000000005f82015250565b5f6121da600f8361192d565b91506121e5826121a6565b602082019050919050565b5f6020820190508181035f830152612207816121ce565b9050919050565b7f416d6f756e742062656c6f77206d696e696d75696d206275726e0000000000005f82015250565b5f612242601a8361192d565b915061224d8261220e565b602082019050919050565b5f6020820190508181035f83015261226f81612236565b9050919050565b7f616d6f756e74206d75737420626520706f7369746976652000000000000000005f82015250565b5f6122aa60188361192d565b91506122b582612276565b602082019050919050565b5f6020820190508181035f8301526122d78161229e565b9050919050565b7f496e73756666696369656e7420616d6f756e74000000000000000000000000005f82015250565b5f61231260138361192d565b915061231d826122de565b602082019050919050565b5f6020820190508181035f83015261233f81612306565b9050919050565b828183375f83830152505050565b5f61235f838561192d565b935061236c838584612346565b6123758361194b565b840190509392505050565b5f6040820190506123935f830186611ab9565b81810360208301526123a6818486612354565b9050949350505050565b7f496e76616c696465206f70657261746f722061646472657373000000000000005f82015250565b5f6123e460198361192d565b91506123ef826123b0565b602082019050919050565b5f6020820190508181035f830152612411816123d8565b9050919050565b5f60608201905061242b5f830186611be8565b6124386020830185611ab9565b6124456040830184611ab9565b94935050505056fea2646970667358221220f9a81d6549a289a2e6aecf976e703cf0c4eadd84298284c14b6178088fcb7c0c64736f6c634300081e0033","linkReferences":{}},"methodIdentifiers":{"DAILY_MINT_LIMIT()":"0a167cf1","MAX_MINT_AMOUNT()":"fa9b7018","MIN_BURN_AMOUNT()":"859222ec","allowance(address,address)":"dd62ed3e","approve(address,uint256)":"095ea7b3","balanceOf(address)":"70a08231","bridgeOperator()":"590665c2","burn(uint256,string)":"7641e6f3","dailyMintAmount(uint256)":"709ce10a","decimals()":"313ce567","getCurrentDay()":"3e6968b6","getDailyMintAmount(uint256)":"963f7d0f","getRemainingDailyMintLimit()":"5b09b0c7","getTodayMintAmount()":"f98e370e","mint(address,uint256,bytes32)":"1e458bee","name()":"06fdde03","owner()":"8da5cb5b","pause()":"8456cb59","paused()":"5c975abb","processedTxs(bytes32)":"9e16f217","renounceOwnership()":"715018a6","symbol()":"95d89b41","totalSupply()":"18160ddd","transfer(address,uint256)":"a9059cbb","transferFrom(address,address,uint256)":"23b872dd","transferOwnership(address)":"f2fde38b","unpause()":"3f4ba83a","updateBridgeOperator(address)":"9b2ee437"},"id":27}